{
  "address": "0xf4381B41D5247D8301bE0e34D8dC3176c04A054B",
  "abi": [
    {
      "inputs": [
        {
          "internalType": "address",
          "name": "_admin",
          "type": "address"
        },
        {
          "internalType": "address",
          "name": "_receiver",
          "type": "address"
        },
        {
          "internalType": "address",
          "name": "tokenAddress",
          "type": "address"
        }
      ],
      "stateMutability": "nonpayable",
      "type": "constructor"
    },
    {
      "inputs": [
        {
          "internalType": "address",
          "name": "target",
          "type": "address"
        }
      ],
      "name": "AddressEmptyCode",
      "type": "error"
    },
    {
      "inputs": [
        {
          "internalType": "address",
          "name": "account",
          "type": "address"
        }
      ],
      "name": "AddressInsufficientBalance",
      "type": "error"
    },
    {
      "inputs": [],
      "name": "FailedInnerCall",
      "type": "error"
    },
    {
      "inputs": [],
      "name": "ReentrancyGuardReentrantCall",
      "type": "error"
    },
    {
      "inputs": [
        {
          "internalType": "address",
          "name": "token",
          "type": "address"
        }
      ],
      "name": "SafeERC20FailedOperation",
      "type": "error"
    },
    {
      "anonymous": false,
      "inputs": [
        {
          "indexed": false,
          "internalType": "address",
          "name": "user",
          "type": "address"
        }
      ],
      "name": "ArbitratorAdded",
      "type": "event"
    },
    {
      "anonymous": false,
      "inputs": [
        {
          "indexed": false,
          "internalType": "bytes32",
          "name": "escrowId",
          "type": "bytes32"
        },
        {
          "indexed": false,
          "internalType": "address",
          "name": "arbitrator",
          "type": "address"
        },
        {
          "indexed": false,
          "internalType": "bool",
          "name": "votedForBuyer",
          "type": "bool"
        }
      ],
      "name": "ArbitratorVoted",
      "type": "event"
    },
    {
      "anonymous": false,
      "inputs": [
        {
          "indexed": false,
          "internalType": "address",
          "name": "user",
          "type": "address"
        },
        {
          "indexed": false,
          "internalType": "enum TrustBazaar.Roles",
          "name": "role",
          "type": "uint8"
        }
      ],
      "name": "BuyerOrSellerAdded",
      "type": "event"
    },
    {
      "anonymous": false,
      "inputs": [
        {
          "indexed": false,
          "internalType": "address",
          "name": "user",
          "type": "address"
        },
        {
          "indexed": false,
          "internalType": "uint256",
          "name": "amount",
          "type": "uint256"
        }
      ],
      "name": "Deposit",
      "type": "event"
    },
    {
      "anonymous": false,
      "inputs": [
        {
          "indexed": false,
          "internalType": "bytes32",
          "name": "escrowId",
          "type": "bytes32"
        },
        {
          "indexed": false,
          "internalType": "address",
          "name": "complainer",
          "type": "address"
        }
      ],
      "name": "DisputeOpened",
      "type": "event"
    },
    {
      "anonymous": false,
      "inputs": [
        {
          "indexed": false,
          "internalType": "bytes32",
          "name": "escrowId",
          "type": "bytes32"
        },
        {
          "indexed": false,
          "internalType": "address",
          "name": "winner",
          "type": "address"
        },
        {
          "indexed": false,
          "internalType": "string",
          "name": "resolution",
          "type": "string"
        }
      ],
      "name": "DisputeResolved",
      "type": "event"
    },
    {
      "anonymous": false,
      "inputs": [
        {
          "indexed": false,
          "internalType": "bytes32",
          "name": "id",
          "type": "bytes32"
        },
        {
          "indexed": false,
          "internalType": "string",
          "name": "itemName",
          "type": "string"
        },
        {
          "indexed": false,
          "internalType": "uint256",
          "name": "price",
          "type": "uint256"
        },
        {
          "indexed": false,
          "internalType": "address",
          "name": "seller",
          "type": "address"
        },
        {
          "indexed": false,
          "internalType": "bool",
          "name": "onSale",
          "type": "bool"
        }
      ],
      "name": "ProductAdded",
      "type": "event"
    },
    {
      "anonymous": false,
      "inputs": [
        {
          "indexed": false,
          "internalType": "bytes32",
          "name": "escrowId",
          "type": "bytes32"
        },
        {
          "indexed": false,
          "internalType": "uint256",
          "name": "price",
          "type": "uint256"
        },
        {
          "indexed": false,
          "internalType": "uint256",
          "name": "claimTime",
          "type": "uint256"
        },
        {
          "indexed": false,
          "internalType": "uint256",
          "name": "expiryTime",
          "type": "uint256"
        }
      ],
      "name": "ProductBought",
      "type": "event"
    },
    {
      "anonymous": false,
      "inputs": [
        {
          "indexed": false,
          "internalType": "address",
          "name": "user",
          "type": "address"
        },
        {
          "indexed": false,
          "internalType": "int256",
          "name": "newReputation",
          "type": "int256"
        }
      ],
      "name": "ReputationUpdated",
      "type": "event"
    },
    {
      "inputs": [
        {
          "internalType": "address",
          "name": "_arbitrator",
          "type": "address"
        }
      ],
      "name": "addArbitrator",
      "outputs": [],
      "stateMutability": "nonpayable",
      "type": "function"
    },
    {
      "inputs": [
        {
          "internalType": "enum TrustBazaar.Roles",
          "name": "role",
          "type": "uint8"
        }
      ],
      "name": "addBuyerOrSeller",
      "outputs": [],
      "stateMutability": "nonpayable",
      "type": "function"
    },
    {
      "inputs": [
        {
          "internalType": "string",
          "name": "_itemName",
          "type": "string"
        },
        {
          "internalType": "uint256",
          "name": "_price",
          "type": "uint256"
        }
      ],
      "name": "addProduct",
      "outputs": [],
      "stateMutability": "nonpayable",
      "type": "function"
    },
    {
      "inputs": [
        {
          "internalType": "bytes32",
          "name": "",
          "type": "bytes32"
        }
      ],
      "name": "arbitrationVotes",
      "outputs": [
        {
          "internalType": "uint256",
          "name": "votesForBuyer",
          "type": "uint256"
        },
        {
          "internalType": "uint256",
          "name": "votesForSeller",
          "type": "uint256"
        },
        {
          "internalType": "bool",
          "name": "resolved",
          "type": "bool"
        }
      ],
      "stateMutability": "view",
      "type": "function"
    },
    {
      "inputs": [],
      "name": "arbitratorsCount",
      "outputs": [
        {
          "internalType": "uint256",
          "name": "",
          "type": "uint256"
        }
      ],
      "stateMutability": "view",
      "type": "function"
    },
    {
      "inputs": [
        {
          "internalType": "string",
          "name": "_itemName",
          "type": "string"
        },
        {
          "internalType": "uint256",
          "name": "_claimTime",
          "type": "uint256"
        },
        {
          "internalType": "uint256",
          "name": "_expiryTime",
          "type": "uint256"
        }
      ],
      "name": "buyProduct",
      "outputs": [
        {
          "internalType": "bytes32",
          "name": "",
          "type": "bytes32"
        }
      ],
      "stateMutability": "nonpayable",
      "type": "function"
    },
    {
      "inputs": [],
      "name": "buyersCount",
      "outputs": [
        {
          "internalType": "uint256",
          "name": "",
          "type": "uint256"
        }
      ],
      "stateMutability": "view",
      "type": "function"
    },
    {
      "inputs": [
        {
          "internalType": "bytes32",
          "name": "escrowId",
          "type": "bytes32"
        }
      ],
      "name": "claimPayment",
      "outputs": [],
      "stateMutability": "nonpayable",
      "type": "function"
    },
    {
      "inputs": [
        {
          "internalType": "bytes32",
          "name": "",
          "type": "bytes32"
        }
      ],
      "name": "escrows",
      "outputs": [
        {
          "internalType": "bytes32",
          "name": "escrowId",
          "type": "bytes32"
        },
        {
          "internalType": "bytes32",
          "name": "productId",
          "type": "bytes32"
        },
        {
          "internalType": "string",
          "name": "productName",
          "type": "string"
        },
        {
          "internalType": "uint256",
          "name": "productPrice",
          "type": "uint256"
        },
        {
          "internalType": "address",
          "name": "productSeller",
          "type": "address"
        },
        {
          "internalType": "address",
          "name": "productBuyer",
          "type": "address"
        },
        {
          "internalType": "uint256",
          "name": "claimTime",
          "type": "uint256"
        },
        {
          "internalType": "uint256",
          "name": "expiryTime",
          "type": "uint256"
        },
        {
          "internalType": "enum TrustBazaar.Authorization",
          "name": "authorization",
          "type": "uint8"
        },
        {
          "internalType": "bool",
          "name": "bought",
          "type": "bool"
        }
      ],
      "stateMutability": "view",
      "type": "function"
    },
    {
      "inputs": [
        {
          "internalType": "bytes32",
          "name": "escrowId",
          "type": "bytes32"
        }
      ],
      "name": "getEscrowDetails",
      "outputs": [
        {
          "components": [
            {
              "internalType": "bytes32",
              "name": "escrowId",
              "type": "bytes32"
            },
            {
              "internalType": "bytes32",
              "name": "productId",
              "type": "bytes32"
            },
            {
              "internalType": "string",
              "name": "productName",
              "type": "string"
            },
            {
              "internalType": "uint256",
              "name": "productPrice",
              "type": "uint256"
            },
            {
              "internalType": "address",
              "name": "productSeller",
              "type": "address"
            },
            {
              "internalType": "address",
              "name": "productBuyer",
              "type": "address"
            },
            {
              "internalType": "address[]",
              "name": "productArbitrators",
              "type": "address[]"
            },
            {
              "internalType": "uint256",
              "name": "claimTime",
              "type": "uint256"
            },
            {
              "internalType": "uint256",
              "name": "expiryTime",
              "type": "uint256"
            },
            {
              "internalType": "enum TrustBazaar.Authorization",
              "name": "authorization",
              "type": "uint8"
            },
            {
              "internalType": "bool",
              "name": "bought",
              "type": "bool"
            }
          ],
          "internalType": "struct TrustBazaar.EscrowDetails",
          "name": "",
          "type": "tuple"
        }
      ],
      "stateMutability": "view",
      "type": "function"
    },
    {
      "inputs": [],
      "name": "minVotesRequired",
      "outputs": [
        {
          "internalType": "uint256",
          "name": "",
          "type": "uint256"
        }
      ],
      "stateMutability": "view",
      "type": "function"
    },
    {
      "inputs": [],
      "name": "nextEscrowId",
      "outputs": [
        {
          "internalType": "uint256",
          "name": "",
          "type": "uint256"
        }
      ],
      "stateMutability": "view",
      "type": "function"
    },
    {
      "inputs": [
        {
          "internalType": "bytes32",
          "name": "escrowId",
          "type": "bytes32"
        }
      ],
      "name": "openDispute",
      "outputs": [],
      "stateMutability": "nonpayable",
      "type": "function"
    },
    {
      "inputs": [
        {
          "internalType": "string",
          "name": "",
          "type": "string"
        }
      ],
      "name": "productNames",
      "outputs": [
        {
          "internalType": "bytes32",
          "name": "",
          "type": "bytes32"
        }
      ],
      "stateMutability": "view",
      "type": "function"
    },
    {
      "inputs": [
        {
          "internalType": "bytes32",
          "name": "",
          "type": "bytes32"
        }
      ],
      "name": "products",
      "outputs": [
        {
          "internalType": "bytes32",
          "name": "id",
          "type": "bytes32"
        },
        {
          "internalType": "string",
          "name": "itemName",
          "type": "string"
        },
        {
          "internalType": "uint256",
          "name": "price",
          "type": "uint256"
        },
        {
          "internalType": "address",
          "name": "seller",
          "type": "address"
        },
        {
          "internalType": "bool",
          "name": "onSale",
          "type": "bool"
        }
      ],
      "stateMutability": "view",
      "type": "function"
    },
    {
      "inputs": [
        {
          "internalType": "address",
          "name": "",
          "type": "address"
        }
      ],
      "name": "reputation",
      "outputs": [
        {
          "internalType": "int256",
          "name": "",
          "type": "int256"
        }
      ],
      "stateMutability": "view",
      "type": "function"
    },
    {
      "inputs": [],
      "name": "sellersCount",
      "outputs": [
        {
          "internalType": "uint256",
          "name": "",
          "type": "uint256"
        }
      ],
      "stateMutability": "view",
      "type": "function"
    },
    {
      "inputs": [],
      "name": "token",
      "outputs": [
        {
          "internalType": "contract IERC20",
          "name": "",
          "type": "address"
        }
      ],
      "stateMutability": "view",
      "type": "function"
    },
    {
      "inputs": [
        {
          "internalType": "bytes32",
          "name": "escrowId",
          "type": "bytes32"
        },
        {
          "internalType": "bool",
          "name": "voteForBuyer",
          "type": "bool"
        }
      ],
      "name": "voteOnDispute",
      "outputs": [],
      "stateMutability": "nonpayable",
      "type": "function"
    }
  ],
  "transactionHash": "0x19387a4725a3177bfd5d23bed3b3a745eaa8b8d58a1e7dd918e750e96e777969",
  "args": [
    "0x186a761645f2A264ad0A655Fb632Ca99150803A9",
    "0x40feacdeee6f017fA2Bc1a8FB38b393Cf9022d71",
    "0x5E57e60e5840Ec4493bEEA7D0D913a12e4398921"
  ],
  "numDeployments": 1,
  "solcInputHash": "89c322e0b0fef245c471870acdf38180",
  "bytecode": "0x60806040526003600855348015601457600080fd5b506040516127dd3803806127dd833981016040819052603191609f565b60016000819055600280546001600160a01b039586166001600160a01b031991821617909155600380549486169482169490941790935580549190931691161781556006819055600581905560075560db565b80516001600160a01b0381168114609a57600080fd5b919050565b60008060006060848603121560b357600080fd5b60ba846084565b925060c6602085016084565b915060d2604085016084565b90509250925092565b6126f3806100ea6000396000f3fe608060405234801561001057600080fd5b50600436106101215760003560e01c806379054391116100ad578063b9f7945111610071578063b9f794511461028d578063ba49a08c146102ad578063f08ef6cb146102b6578063f1992cd6146102c9578063fc0c546a146102f457600080fd5b8063790543911461023b57806389cb29dd1461025f578063923651b0146102685780639ae9711e14610271578063b15247d91461027a57600080fd5b8063403fb4a8116100f4578063403fb4a8146101cb5780634e06f155146101e257806351a89ce8146101f5578063686e608314610215578063742e76231461022857600080fd5b806301fabd75146101265780630e9e5aef1461013b5780632d83549c1461018f5780632db050d1146101b8575b600080fd5b610139610134366004611f2f565b61031f565b005b61016d610149366004611f58565b600e6020526000908152604090208054600182015460039092015490919060ff1683565b6040805193845260208401929092521515908201526060015b60405180910390f35b6101a261019d366004611f58565b6104a4565b6040516101869a99989796959493929190611feb565b6101396101c6366004611f58565b61058f565b6101d460085481565b604051908152602001610186565b6101d46101f0366004612105565b6108ab565b610208610203366004611f58565b610d56565b6040516101869190612198565b610139610223366004612275565b610f6d565b6101396102363660046122a5565b61118d565b61024e610249366004611f58565b6112d9565b6040516101869594939291906122c6565b6101d460045481565b6101d460075481565b6101d460055481565b610139610288366004612307565b61139f565b6101d461029b366004611f2f565b60106020526000908152604090205481565b6101d460065481565b6101396102c4366004611f58565b61151b565b6101d46102d736600461234c565b8051602081830181018051600f8252928201919093012091525481565b600154610307906001600160a01b031681565b6040516001600160a01b039091168152602001610186565b6002546001600160a01b031633146103775760405162461bcd60e51b81526020600482015260166024820152754f6e6c792041646d696e2043616e20446f205468697360501b60448201526064015b60405180910390fd5b6001600160a01b0381166000908152600960205260409020541580156103b357506001600160a01b0381166000908152600a6020526040902054155b80156103d557506001600160a01b0381166000908152600b6020526040902054155b6104215760405162461bcd60e51b815260206004820152601f60248201527f54686973206164647265737320616c726561647920686173206120726f6c6500604482015260640161036e565b600780546001600160a01b0383166000908152600b6020526040812082905590919061044c8361239f565b90915550506001600160a01b03811660008181526010602090815260408083209290925590519182527ffc4dfef69004b5e3aba1eb4a8b1e53b893418fda232d9f60574a6c62f30c449d91015b60405180910390a150565b600d60205260009081526040902080546001820154600283018054929391926104cc906123b8565b80601f01602080910402602001604051908101604052809291908181526020018280546104f8906123b8565b80156105455780601f1061051a57610100808354040283529160200191610545565b820191906000526020600020905b81548152906001019060200180831161052857829003601f168201915b5050505060038301546004840154600585015460078601546008870154600990970154959693956001600160a01b0393841695509290911692909160ff808216916101009004168a565b610597611740565b6000818152600d6020526040902060048101546001600160a01b031633146106015760405162461bcd60e51b815260206004820152601e60248201527f4e6f74207468652073656c6c6572206f6620746869732070726f647563740000604482015260640161036e565b6000600982015460ff16600381111561061c5761061c611fc1565b146106745760405162461bcd60e51b815260206004820152602260248201527f457363726f77206973206e6f7420696e206120636c61696d61626c6520737461604482015261746560f01b606482015260840161036e565b80600701544210156106c85760405162461bcd60e51b815260206004820152601d60248201527f436c61696d2074696d6520686173206e6f742079657420706173736564000000604482015260640161036e565b600981015460ff6101009091041615156001146107275760405162461bcd60e51b815260206004820152601b60248201527f50726f6475637420686173206e6f74206265656e20626f756768740000000000604482015260640161036e565b60098101805460ff191660019081179091556003820154905460048084015460405163a9059cbb60e01b81526001600160a01b0391821692810192909252602482018490529091169063a9059cbb906044016020604051808303816000875af1158015610798573d6000803e3d6000fd5b505050506040513d601f19601f820116820180604052508101906107bc91906123f2565b6108085760405162461bcd60e51b815260206004820152601960248201527f5472616e7366657220746f2073656c6c6572206661696c656400000000000000604482015260640161036e565b6004820154610821906001600160a01b0316600161176a565b6004820154604080518581526001600160a01b0390921660208301526060828201819052601a908301527f53656c6c657220636c61696d656420746865207061796d656e740000000000006080830152517f24dfb88b0161e4f819357ce3072381cf0aef307e98afdf55fb330035fa49867d9181900360a00190a150506108a86001600055565b50565b336000908152600a602052604081205481036108ff5760405162461bcd60e51b81526020600482015260136024820152722cb7ba9020b932902737ba102090213abcb2b960691b604482015260640161036e565b81831061094e5760405162461bcd60e51b815260206004820152601760248201527f436c61696d54696d65203e3d2045787069727954696d65000000000000000000604482015260640161036e565b6000600f85604051610960919061240f565b90815260200160405180910390205490506000600c60008381526020019081526020016000206040518060a0016040529081600082015481526020016001820180546109ab906123b8565b80601f01602080910402602001604051908101604052809291908181526020018280546109d7906123b8565b8015610a245780601f106109f957610100808354040283529160200191610a24565b820191906000526020600020905b815481529060010190602001808311610a0757829003601f168201915b5050509183525050600282015460208201526003909101546001600160a01b038082166040840152600160a01b90910460ff161515606092830152908201519192501615801590610a785750604081015115155b610abc5760405162461bcd60e51b8152602060048201526015602482015274141c9bd91d58dd08191bd95cdb89dd08195e1a5cdd605a1b604482015260640161036e565b60808101511515600114610b0b5760405162461bcd60e51b815260206004820152601660248201527550726f64756374206973206e6f74206f6e2073616c6560501b604482015260640161036e565b60048054604080513360601b6bffffffffffffffffffffffff191660208083019190915243603483015260548083018590528351808403909101815260749092019092528051910120916000610b608361239f565b91905055506060604051806101600160405280838152602001858152602001846020015181526020018460400151815260200184606001516001600160a01b03168152602001336001600160a01b031681526020018281526020018842610bc7919061242b565b8152602001610bd6884261242b565b815260200160008152600160209182018190526000858152600d83526040908190208451815592840151918301919091558201516002820190610c19908261248c565b506060820151600382015560808201516004820180546001600160a01b039283166001600160a01b03199182161790915560a084015160058401805491909316911617905560c08201518051610c79916006840191602090910190611e75565b5060e08201516007820155610100820151600882015561012082015160098201805460ff19166001836003811115610cb357610cb3611fc1565b02179055506101409190910151600990910180549115156101000261ff00199092169190911790556040830151600154610cfc916001600160a01b03909116903390309061181d565b60408084015181518481526020810191909152908101889052606081018790527f9215d2c956ea108ac20e00701fd6738d7228a62632cdf70fcf4ee00db735af1c9060800160405180910390a150925050505b9392505050565b604080516101608101825260008082526020820181905260609282018390528282018190526080820181905260a0820181905260c082019290925260e0810182905261010081018290526101208101829052610140810191909152600d6000838152602001908152602001600020604051806101600160405290816000820154815260200160018201548152602001600282018054610df4906123b8565b80601f0160208091040260200160405190810160405280929190818152602001828054610e20906123b8565b8015610e6d5780601f10610e4257610100808354040283529160200191610e6d565b820191906000526020600020905b815481529060010190602001808311610e5057829003601f168201915b5050509183525050600382015460208083019190915260048301546001600160a01b03908116604080850191909152600585015490911660608401526006840180548251818502810185019093528083526080909401939192909190830182828015610f0257602002820191906000526020600020905b81546001600160a01b03168152600190910190602001808311610ee4575b50505091835250506007820154602082015260088201546040820152600982015460609091019060ff166003811115610f3d57610f3d611fc1565b6003811115610f4e57610f4e611fc1565b815260099190910154610100900460ff16151560209091015292915050565b336000908152600b60205260408120549003610fcb5760405162461bcd60e51b815260206004820152601960248201527f596f7520417265204e6f7420416e2041726269747261746f7200000000000000604482015260640161036e565b610fd3611740565b6000828152600d60209081526040808320600e9092529091206003600983015460ff16600381111561100757611007611fc1565b1461104d5760405162461bcd60e51b8152602060048201526016602482015275115cd8dc9bddc81a5cc81b9bdd08191a5cdc1d5d195960521b604482015260640161036e565b33600090815260028201602052604090205460ff16156110a35760405162461bcd60e51b8152602060048201526011602482015270165bdd48185b1c9958591e481d9bdd1959607a1b604482015260640161036e565b600381015460ff1661117d5733600081815260028301602090815260408220805460ff191660019081179091556006860180549182018155835291200180546001600160a01b0319169091179055821561110f5780548160006111058361239f565b9190505550611127565b6001810180549060006111218361239f565b91905055505b604080518581523360208201528415158183015290517f3d3c0d41b9416af70d3a4a984a7d1b35c950b5ba7e61f38baa362961d4dff2e89181900360600190a160085460068301541061117d5761117d8461187d565b50506111896001600055565b5050565b336000908152600960205260409020541580156111b75750336000908152600a6020526040902054155b80156111d05750336000908152600b6020526040902054155b61121c5760405162461bcd60e51b815260206004820152601760248201527f596f7520616c72656164792068617665206120726f6c65000000000000000000604482015260640161036e565b600281600281111561123057611230611fc1565b0361129e5760068054336000908152600a602052604081208290559091906112578361239f565b90915550503360008181526010602052604080822091909155517f21b3684002fd868ee68cac03f169a569720e1ca887b951bda71e0b3a0fb9430c9161049991849061254e565b60018160028111156112b2576112b2611fc1565b036108a857600580543360009081526009602052604081208290559091906112578361239f565b600c60205260009081526040902080546001820180549192916112fb906123b8565b80601f0160208091040260200160405190810160405280929190818152602001828054611327906123b8565b80156113745780601f1061134957610100808354040283529160200191611374565b820191906000526020600020905b81548152906001019060200180831161135757829003601f168201915b5050505060028301546003909301549192916001600160a01b0381169150600160a01b900460ff1685565b3360009081526009602052604081205490036113f45760405162461bcd60e51b81526020600482015260146024820152732cb7ba9020b932902737ba10209029b2b63632b960611b604482015260640161036e565b6000338360405160200161140992919061257b565b60408051601f19818403018152828252805160209182012060a0840183528084528382018781528484018790523360608601526001608086018190526000838152600c90945293909220845181559151909450839282019061146b908261248c565b5060408281015160028301556060830151600390920180546080909401511515600160a01b026001600160a81b03199094166001600160a01b0390931692909217929092179055518290600f906114c390879061240f565b9081526020016040518091039020819055507f87b2d429ad549a72dd2a2bdc8051d89d287b51451ff7088709bf101a51069e4382858533600160405161150d9594939291906122c6565b60405180910390a150505050565b611523611740565b6000818152600d6020526040902060058101546001600160a01b0316331480611558575060048101546001600160a01b031633145b6115965760405162461bcd60e51b815260206004820152600f60248201526e4e6f7420796f757220657363726f7760881b604482015260640161036e565b6000600982015460ff1660038111156115b1576115b1611fc1565b146115fe5760405162461bcd60e51b815260206004820152601b60248201527f457363726f77206e6f7420696e2050656e64696e672073746174650000000000604482015260640161036e565b60098101805460ff191660031790556000828152600d602052604090208154815560018083015490820155819060028082019061163d908401826125b3565b506003828101549082015560048083015490820180546001600160a01b039283166001600160a01b0319918216179091556005808501549084018054919093169116179055600680830180546116969284019190611eda565b506007828101549082015560088083015490820155600980830154908201805460ff9092169160ff191660018360038111156116d4576116d4611fc1565b02179055506009918201549101805461ff0019166101009283900460ff161515909202919091179055604080518381523360208201527fe7b614d99462ab012c8191c9348164cd62a4aec6d211f42371fd1f0759e5c220910160405180910390a1506108a86001600055565b60026000540361176357604051633ee5aeb560e01b815260040160405180910390fd5b6002600055565b801561179e576001600160a01b038216600090815260106020526040812080549161179483612688565b91905055506117c8565b6001600160a01b03821660009081526010602052604081208054916117c2836126a0565b91905055505b6001600160a01b038216600081815260106020908152604091829020548251938452908301527f21b93f5364d09d606ec33450e45ad2e33958e3dac6c4f771ed1218f1eca47db5910160405180910390a15050565b604080516001600160a01b0385811660248301528416604482015260648082018490528251808303909101815260849091019091526020810180516001600160e01b03166323b872dd60e01b1790526118779085906119f1565b50505050565b6000818152600e60209081526040808320600d909252909120600382015460ff16156118eb5760405162461bcd60e51b815260206004820152601860248201527f4469737075746520616c7265616479207265736f6c7665640000000000000000604482015260640161036e565b80600801544210611904576118ff83611a54565b505050565b6000826001015483600001541115611942575060098101805460ff1916600217905560058101546001600160a01b031661193d84611b23565b611969565b5060098101805460ff1916600117905560048101546001600160a01b031661196984611c68565b60038301805460ff1916600190811790915561198690829061176a565b7f24dfb88b0161e4f819357ce3072381cf0aef307e98afdf55fb330035fa49867d848260405161150d9291909182526001600160a01b031660208201526060604082018190526010908201526f111a5cdc1d5d19481c995cdbdb1d995960821b608082015260a00190565b6000611a066001600160a01b03841683611d3c565b90508051600014158015611a2b575080806020019051810190611a2991906123f2565b155b156118ff57604051635274afe760e01b81526001600160a01b038416600482015260240161036e565b6000818152600d602052604090206008810154421015611ab65760405162461bcd60e51b815260206004820152601a60248201527f457363726f7720686173206e6f74207965742065787069726564000000000000604482015260640161036e565b6000600982015460ff166003811115611ad157611ad1611fc1565b14611b1e5760405162461bcd60e51b815260206004820152601b60248201527f457363726f77206e6f7420696e2050656e64696e672073746174650000000000604482015260640161036e565b611189825b6000818152600d60205260409081902060038101546005820154600154935163a9059cbb60e01b81526001600160a01b0391821660048201819052602482018490529394929392919091169063a9059cbb906044016020604051808303816000875af1158015611b97573d6000803e3d6000fd5b505050506040513d601f19601f82011682018060405250810190611bbb91906123f2565b611bf75760405162461bcd60e51b815260206004820152600d60248201526c1499599d5b990819985a5b1959609a1b604482015260640161036e565b7f24dfb88b0161e4f819357ce3072381cf0aef307e98afdf55fb330035fa49867d848260405161150d9291909182526001600160a01b03166020820152606060408201819052601690820152752932b33ab7321034b9b9bab2b2103a3790313abcb2b960511b608082015260a00190565b6000818152600d6020526040908190206003810154600480830154600154945163a9059cbb60e01b81526001600160a01b0391821692810183905260248101849052939492939192169063a9059cbb906044016020604051808303816000875af1158015611cda573d6000803e3d6000fd5b505050506040513d601f19601f82011682018060405250810190611cfe91906123f2565b6118775760405162461bcd60e51b815260206004820152600f60248201526e151c985b9cd9995c8819985a5b1959608a1b604482015260640161036e565b6060611d4a83836000611d53565b90505b92915050565b606081471015611d785760405163cd78605960e01b815230600482015260240161036e565b600080856001600160a01b03168486604051611d94919061240f565b60006040518083038185875af1925050503d8060008114611dd1576040519150601f19603f3d011682016040523d82523d6000602084013e611dd6565b606091505b5091509150611de6868383611df0565b9695505050505050565b606082611e0557611e0082611e4c565b610d4f565b8151158015611e1c57506001600160a01b0384163b155b15611e4557604051639996b31560e01b81526001600160a01b038516600482015260240161036e565b5080610d4f565b805115611e5c5780518082602001fd5b604051630a12f52160e11b815260040160405180910390fd5b828054828255906000526020600020908101928215611eca579160200282015b82811115611eca57825182546001600160a01b0319166001600160a01b03909116178255602090920191600190910190611e95565b50611ed6929150611f1a565b5090565b828054828255906000526020600020908101928215611eca5760005260206000209182015b82811115611eca578254825591600101919060010190611eff565b5b80821115611ed65760008155600101611f1b565b600060208284031215611f4157600080fd5b81356001600160a01b0381168114610d4f57600080fd5b600060208284031215611f6a57600080fd5b5035919050565b60005b83811015611f8c578181015183820152602001611f74565b50506000910152565b60008151808452611fad816020860160208601611f71565b601f01601f19169290920160200192915050565b634e487b7160e01b600052602160045260246000fd5b60048110611fe757611fe7611fc1565b9052565b8a81528960208201526101406040820152600061200c61014083018b611f95565b606083018a90526001600160a01b038981166080850152881660a084015260c0830187905260e083018690529050612048610100830185611fd7565b8215156101208301529b9a5050505050505050505050565b634e487b7160e01b600052604160045260246000fd5b600082601f83011261208757600080fd5b813567ffffffffffffffff8111156120a1576120a1612060565b604051601f8201601f19908116603f0116810167ffffffffffffffff811182821017156120d0576120d0612060565b6040528181528382016020018510156120e857600080fd5b816020850160208301376000918101602001919091529392505050565b60008060006060848603121561211a57600080fd5b833567ffffffffffffffff81111561213157600080fd5b61213d86828701612076565b9660208601359650604090950135949350505050565b600081518084526020840193506020830160005b8281101561218e5781516001600160a01b0316865260209586019590910190600101612167565b5093949350505050565b6020815281516020820152602082015160408201526000604083015161016060608401526121ca610180840182611f95565b90506060840151608084015260808401516121f060a08501826001600160a01b03169052565b5060a08401516001600160a01b03811660c08501525060c0840151838203601f190160e08501526122218282612153565b91505060e084015161010084015261010084015161012084015261012084015161224f610140850182611fd7565b50610140840151801515610160850152509392505050565b80151581146108a857600080fd5b6000806040838503121561228857600080fd5b82359150602083013561229a81612267565b809150509250929050565b6000602082840312156122b757600080fd5b813560038110610d4f57600080fd5b85815260a0602082015260006122df60a0830187611f95565b6040830195909552506001600160a01b03929092166060830152151560809091015292915050565b6000806040838503121561231a57600080fd5b823567ffffffffffffffff81111561233157600080fd5b61233d85828601612076565b95602094909401359450505050565b60006020828403121561235e57600080fd5b813567ffffffffffffffff81111561237557600080fd5b61238184828501612076565b949350505050565b634e487b7160e01b600052601160045260246000fd5b6000600182016123b1576123b1612389565b5060010190565b600181811c908216806123cc57607f821691505b6020821081036123ec57634e487b7160e01b600052602260045260246000fd5b50919050565b60006020828403121561240457600080fd5b8151610d4f81612267565b60008251612421818460208701611f71565b9190910192915050565b80820180821115611d4d57611d4d612389565b601f8211156118ff57806000526020600020601f840160051c810160208510156124655750805b601f840160051c820191505b818110156124855760008155600101612471565b5050505050565b815167ffffffffffffffff8111156124a6576124a6612060565b6124ba816124b484546123b8565b8461243e565b6020601f8211600181146124f157600083156124d65750848201515b600184901b600019600386901b1c198216175b855550612485565b600084815260208120601f198516915b828110156125215787850151825560209485019460019092019101612501565b508482101561253f5786840151600019600387901b60f8161c191681555b50505050600190811b01905550565b6001600160a01b0383168152604081016003831061256e5761256e611fc1565b8260208301529392505050565b6bffffffffffffffffffffffff198360601b168152600082516125a5816014850160208701611f71565b919091016014019392505050565b8181036125be575050565b6125c882546123b8565b67ffffffffffffffff8111156125e0576125e0612060565b6125ee816124b484546123b8565b6000601f82116001811461262057600083156124d6575081850154600184901b600019600386901b1c198216176124e9565b600085815260209020601f19841690600086815260209020845b8381101561265a578286015482556001958601959091019060200161263a565b50858310156126785781850154600019600388901b60f8161c191681555b5050505050600190811b01905550565b60006001600160ff1b0182016123b1576123b1612389565b6000600160ff1b82016126b5576126b5612389565b50600019019056fea264697066735822122061a7a2cd86681d1173656528cd9d88c141ac32596e6ed399fa8416a4cc2e5acf64736f6c634300081a0033",
  "devdoc": {
    "errors": {
      "AddressEmptyCode(address)": [
        {
          "details": "There's no code at `target` (it is not a contract)."
        }
      ],
      "AddressInsufficientBalance(address)": [
        {
          "details": "The ETH balance of the account is not enough to perform the operation."
        }
      ],
      "FailedInnerCall()": [
        {
          "details": "A call to an address target failed. The target may have reverted."
        }
      ],
      "ReentrancyGuardReentrantCall()": [
        {
          "details": "Unauthorized reentrant call."
        }
      ],
      "SafeERC20FailedOperation(address)": [
        {
          "details": "An operation with an ERC20 token failed."
        }
      ]
    },
    "kind": "dev",
    "methods": {},
    "version": 1
  },
  "userdoc": {
    "kind": "user",
    "methods": {},
    "version": 1
  },
  "storageLayout": {
    "storage": [
      {
        "astId": 1375,
        "contract": "contracts/TrustBazaar.sol:TrustBazaar",
        "label": "_status",
        "offset": 0,
        "slot": "0",
        "type": "t_uint256"
      },
      {
        "astId": 1489,
        "contract": "contracts/TrustBazaar.sol:TrustBazaar",
        "label": "token",
        "offset": 0,
        "slot": "1",
        "type": "t_contract(IERC20)729"
      },
      {
        "astId": 1491,
        "contract": "contracts/TrustBazaar.sol:TrustBazaar",
        "label": "admin",
        "offset": 0,
        "slot": "2",
        "type": "t_address"
      },
      {
        "astId": 1493,
        "contract": "contracts/TrustBazaar.sol:TrustBazaar",
        "label": "receiver",
        "offset": 0,
        "slot": "3",
        "type": "t_address_payable"
      },
      {
        "astId": 1495,
        "contract": "contracts/TrustBazaar.sol:TrustBazaar",
        "label": "nextEscrowId",
        "offset": 0,
        "slot": "4",
        "type": "t_uint256"
      },
      {
        "astId": 1497,
        "contract": "contracts/TrustBazaar.sol:TrustBazaar",
        "label": "sellersCount",
        "offset": 0,
        "slot": "5",
        "type": "t_uint256"
      },
      {
        "astId": 1499,
        "contract": "contracts/TrustBazaar.sol:TrustBazaar",
        "label": "buyersCount",
        "offset": 0,
        "slot": "6",
        "type": "t_uint256"
      },
      {
        "astId": 1501,
        "contract": "contracts/TrustBazaar.sol:TrustBazaar",
        "label": "arbitratorsCount",
        "offset": 0,
        "slot": "7",
        "type": "t_uint256"
      },
      {
        "astId": 1504,
        "contract": "contracts/TrustBazaar.sol:TrustBazaar",
        "label": "minVotesRequired",
        "offset": 0,
        "slot": "8",
        "type": "t_uint256"
      },
      {
        "astId": 1567,
        "contract": "contracts/TrustBazaar.sol:TrustBazaar",
        "label": "sellers",
        "offset": 0,
        "slot": "9",
        "type": "t_mapping(t_address,t_uint256)"
      },
      {
        "astId": 1571,
        "contract": "contracts/TrustBazaar.sol:TrustBazaar",
        "label": "buyers",
        "offset": 0,
        "slot": "10",
        "type": "t_mapping(t_address,t_uint256)"
      },
      {
        "astId": 1575,
        "contract": "contracts/TrustBazaar.sol:TrustBazaar",
        "label": "arbitrators",
        "offset": 0,
        "slot": "11",
        "type": "t_mapping(t_address,t_uint256)"
      },
      {
        "astId": 1580,
        "contract": "contracts/TrustBazaar.sol:TrustBazaar",
        "label": "products",
        "offset": 0,
        "slot": "12",
        "type": "t_mapping(t_bytes32,t_struct(Product)1527_storage)"
      },
      {
        "astId": 1585,
        "contract": "contracts/TrustBazaar.sol:TrustBazaar",
        "label": "escrows",
        "offset": 0,
        "slot": "13",
        "type": "t_mapping(t_bytes32,t_struct(EscrowDetails)1552_storage)"
      },
      {
        "astId": 1590,
        "contract": "contracts/TrustBazaar.sol:TrustBazaar",
        "label": "arbitrationVotes",
        "offset": 0,
        "slot": "14",
        "type": "t_mapping(t_bytes32,t_struct(ArbitrationVote)1563_storage)"
      },
      {
        "astId": 1594,
        "contract": "contracts/TrustBazaar.sol:TrustBazaar",
        "label": "productNames",
        "offset": 0,
        "slot": "15",
        "type": "t_mapping(t_string_memory_ptr,t_bytes32)"
      },
      {
        "astId": 1598,
        "contract": "contracts/TrustBazaar.sol:TrustBazaar",
        "label": "reputation",
        "offset": 0,
        "slot": "16",
        "type": "t_mapping(t_address,t_int256)"
      }
    ],
    "types": {
      "t_address": {
        "encoding": "inplace",
        "label": "address",
        "numberOfBytes": "20"
      },
      "t_address_payable": {
        "encoding": "inplace",
        "label": "address payable",
        "numberOfBytes": "20"
      },
      "t_array(t_address)dyn_storage": {
        "base": "t_address",
        "encoding": "dynamic_array",
        "label": "address[]",
        "numberOfBytes": "32"
      },
      "t_bool": {
        "encoding": "inplace",
        "label": "bool",
        "numberOfBytes": "1"
      },
      "t_bytes32": {
        "encoding": "inplace",
        "label": "bytes32",
        "numberOfBytes": "32"
      },
      "t_contract(IERC20)729": {
        "encoding": "inplace",
        "label": "contract IERC20",
        "numberOfBytes": "20"
      },
      "t_enum(Authorization)1509": {
        "encoding": "inplace",
        "label": "enum TrustBazaar.Authorization",
        "numberOfBytes": "1"
      },
      "t_int256": {
        "encoding": "inplace",
        "label": "int256",
        "numberOfBytes": "32"
      },
      "t_mapping(t_address,t_bool)": {
        "encoding": "mapping",
        "key": "t_address",
        "label": "mapping(address => bool)",
        "numberOfBytes": "32",
        "value": "t_bool"
      },
      "t_mapping(t_address,t_int256)": {
        "encoding": "mapping",
        "key": "t_address",
        "label": "mapping(address => int256)",
        "numberOfBytes": "32",
        "value": "t_int256"
      },
      "t_mapping(t_address,t_uint256)": {
        "encoding": "mapping",
        "key": "t_address",
        "label": "mapping(address => uint256)",
        "numberOfBytes": "32",
        "value": "t_uint256"
      },
      "t_mapping(t_bytes32,t_struct(ArbitrationVote)1563_storage)": {
        "encoding": "mapping",
        "key": "t_bytes32",
        "label": "mapping(bytes32 => struct TrustBazaar.ArbitrationVote)",
        "numberOfBytes": "32",
        "value": "t_struct(ArbitrationVote)1563_storage"
      },
      "t_mapping(t_bytes32,t_struct(EscrowDetails)1552_storage)": {
        "encoding": "mapping",
        "key": "t_bytes32",
        "label": "mapping(bytes32 => struct TrustBazaar.EscrowDetails)",
        "numberOfBytes": "32",
        "value": "t_struct(EscrowDetails)1552_storage"
      },
      "t_mapping(t_bytes32,t_struct(Product)1527_storage)": {
        "encoding": "mapping",
        "key": "t_bytes32",
        "label": "mapping(bytes32 => struct TrustBazaar.Product)",
        "numberOfBytes": "32",
        "value": "t_struct(Product)1527_storage"
      },
      "t_mapping(t_string_memory_ptr,t_bytes32)": {
        "encoding": "mapping",
        "key": "t_string_memory_ptr",
        "label": "mapping(string => bytes32)",
        "numberOfBytes": "32",
        "value": "t_bytes32"
      },
      "t_string_memory_ptr": {
        "encoding": "bytes",
        "label": "string",
        "numberOfBytes": "32"
      },
      "t_string_storage": {
        "encoding": "bytes",
        "label": "string",
        "numberOfBytes": "32"
      },
      "t_struct(ArbitrationVote)1563_storage": {
        "encoding": "inplace",
        "label": "struct TrustBazaar.ArbitrationVote",
        "members": [
          {
            "astId": 1554,
            "contract": "contracts/TrustBazaar.sol:TrustBazaar",
            "label": "votesForBuyer",
            "offset": 0,
            "slot": "0",
            "type": "t_uint256"
          },
          {
            "astId": 1556,
            "contract": "contracts/TrustBazaar.sol:TrustBazaar",
            "label": "votesForSeller",
            "offset": 0,
            "slot": "1",
            "type": "t_uint256"
          },
          {
            "astId": 1560,
            "contract": "contracts/TrustBazaar.sol:TrustBazaar",
            "label": "voted",
            "offset": 0,
            "slot": "2",
            "type": "t_mapping(t_address,t_bool)"
          },
          {
            "astId": 1562,
            "contract": "contracts/TrustBazaar.sol:TrustBazaar",
            "label": "resolved",
            "offset": 0,
            "slot": "3",
            "type": "t_bool"
          }
        ],
        "numberOfBytes": "128"
      },
      "t_struct(EscrowDetails)1552_storage": {
        "encoding": "inplace",
        "label": "struct TrustBazaar.EscrowDetails",
        "members": [
          {
            "astId": 1529,
            "contract": "contracts/TrustBazaar.sol:TrustBazaar",
            "label": "escrowId",
            "offset": 0,
            "slot": "0",
            "type": "t_bytes32"
          },
          {
            "astId": 1531,
            "contract": "contracts/TrustBazaar.sol:TrustBazaar",
            "label": "productId",
            "offset": 0,
            "slot": "1",
            "type": "t_bytes32"
          },
          {
            "astId": 1533,
            "contract": "contracts/TrustBazaar.sol:TrustBazaar",
            "label": "productName",
            "offset": 0,
            "slot": "2",
            "type": "t_string_storage"
          },
          {
            "astId": 1535,
            "contract": "contracts/TrustBazaar.sol:TrustBazaar",
            "label": "productPrice",
            "offset": 0,
            "slot": "3",
            "type": "t_uint256"
          },
          {
            "astId": 1537,
            "contract": "contracts/TrustBazaar.sol:TrustBazaar",
            "label": "productSeller",
            "offset": 0,
            "slot": "4",
            "type": "t_address"
          },
          {
            "astId": 1539,
            "contract": "contracts/TrustBazaar.sol:TrustBazaar",
            "label": "productBuyer",
            "offset": 0,
            "slot": "5",
            "type": "t_address"
          },
          {
            "astId": 1542,
            "contract": "contracts/TrustBazaar.sol:TrustBazaar",
            "label": "productArbitrators",
            "offset": 0,
            "slot": "6",
            "type": "t_array(t_address)dyn_storage"
          },
          {
            "astId": 1544,
            "contract": "contracts/TrustBazaar.sol:TrustBazaar",
            "label": "claimTime",
            "offset": 0,
            "slot": "7",
            "type": "t_uint256"
          },
          {
            "astId": 1546,
            "contract": "contracts/TrustBazaar.sol:TrustBazaar",
            "label": "expiryTime",
            "offset": 0,
            "slot": "8",
            "type": "t_uint256"
          },
          {
            "astId": 1549,
            "contract": "contracts/TrustBazaar.sol:TrustBazaar",
            "label": "authorization",
            "offset": 0,
            "slot": "9",
            "type": "t_enum(Authorization)1509"
          },
          {
            "astId": 1551,
            "contract": "contracts/TrustBazaar.sol:TrustBazaar",
            "label": "bought",
            "offset": 1,
            "slot": "9",
            "type": "t_bool"
          }
        ],
        "numberOfBytes": "320"
      },
      "t_struct(Product)1527_storage": {
        "encoding": "inplace",
        "label": "struct TrustBazaar.Product",
        "members": [
          {
            "astId": 1518,
            "contract": "contracts/TrustBazaar.sol:TrustBazaar",
            "label": "id",
            "offset": 0,
            "slot": "0",
            "type": "t_bytes32"
          },
          {
            "astId": 1520,
            "contract": "contracts/TrustBazaar.sol:TrustBazaar",
            "label": "itemName",
            "offset": 0,
            "slot": "1",
            "type": "t_string_storage"
          },
          {
            "astId": 1522,
            "contract": "contracts/TrustBazaar.sol:TrustBazaar",
            "label": "price",
            "offset": 0,
            "slot": "2",
            "type": "t_uint256"
          },
          {
            "astId": 1524,
            "contract": "contracts/TrustBazaar.sol:TrustBazaar",
            "label": "seller",
            "offset": 0,
            "slot": "3",
            "type": "t_address"
          },
          {
            "astId": 1526,
            "contract": "contracts/TrustBazaar.sol:TrustBazaar",
            "label": "onSale",
            "offset": 20,
            "slot": "3",
            "type": "t_bool"
          }
        ],
        "numberOfBytes": "128"
      },
      "t_uint256": {
        "encoding": "inplace",
        "label": "uint256",
        "numberOfBytes": "32"
      }
    }
  }
}